:100000000C9462000C948A000C948A000C948A0070
:100010000C948A000C948A000C948A000C948A0038
:100020000C948A000C948A000C948A000C94FA03B5
:100030000C948A000C948A000C948A000C948A0018
:100040000C943B080C948A000C94C8030C94A203F3
:100050000C948A000C948A000C948A000C948A00F8
:100060000C948A000C948A000000000024002700F1
:100070002A0000000000250028002B0000000000DE
:1000800023002600290004040404040404040202DA
:100090000202020203030303030301020408102007
:1000A0004080010204081020010204081020000012
:1000B0000008000201000003040700000000000027
:1000C0000000030D11241FBECFEFD8E0DEBFCDBF6F
:1000D00012E0A0E0B1E0E8EAFCE102C005900D9278
:1000E000A639B107D9F723E0A6E9B2E001C01D9215
:1000F000A03FB207E1F710E0C2E6D0E004C02197CC
:10010000FE010E94470EC136D107C9F70E9485083B
:100110000C94520E0C940000CF92DF92EF92FF925B
:100120000F931F93CF93DF936C017A018B01C0E093
:10013000D0E0CE15DF0581F0D8016D918D01D6019B
:10014000ED91FC910190F081E02DC6010995892B7C
:1001500011F02196EECF7E01C701DF91CF911F9163
:100160000F91FF90EF90DF90CF900895FC01538D99
:10017000448D252F30E0842F90E0821B930B541781
:1001800010F0CF96089501970895FC01918D828D0E
:10019000981761F0828DDF01A80FB11D5D968C91DB
:1001A000928D9F5F9F73928F90E008958FEF9FEFE6
:1001B0000895FC01918D828D981731F0828DE80FA2
:1001C000F11D858D90E008958FEF9FEF0895FC015C
:1001D000918D228D892F90E0805C9F4F821B910929
:1001E0008F73992708958FE992E00E94E70021E03C
:1001F000892B09F420E0822F0895FC01848DDF0112
:10020000A80FB11DA35ABF4F2C91848D90E0019689
:100210008F739927848FA689B7892C93A089B18978
:100220008C91837080648C93938D848D981306C019
:100230000288F389E02D80818F7D80830895EF927D
:10024000FF920F931F93CF93DF93EC0181E0888F90
:100250009B8D8C8D981305C0E889F989808185FD77
:1002600026C0F62E0B8D10E00F5F1F4F0F73112766
:10027000E02E8C8DE8120CC00FB607FCFACFE8898F
:10028000F989808185FFF5CFCE010E94FD00F1CF75
:100290008B8DFE01E80FF11DE35AFF4FF0829FB7EF
:1002A000F8940B8FEA89FB89808180620AC09FB72E
:1002B000F894EE89FF896083E889F98980818370E9
:1002C000806480839FBF81E090E0DF91CF911F9198
:1002D0000F91FF90EF900895CF93DF93EC01888DFD
:1002E0008823C9F0EA89FB89808185FD05C0A8893A
:1002F000B9898C9186FD0FC00FB607FCF5CF8081C0
:1003000085FFF2CFA889B9898C9185FFEDCFCE0109
:100310000E94FD00E7CFDF91CF91089580E090E04B
:10032000892B29F00E94F30081110C94000008959C
:10033000089580E090E00895862F642F0C94F506D0
:10034000CF93DF93EC0160E08E810E94F50661E0BF
:100350008E810E94F50660E08E810E94F5068BE892
:1003600091E00197F1F7DF91CF910895862F642FE7
:100370000C942407862F0C94CC060E944D0E611518
:10038000710579F0FB0101900020E9F73197AF0189
:10039000461B570BDC01ED91FC910280F381E02DAF
:1003A000099480E090E008950F931F93CF93DF931B
:1003B000EC010E94BF018C016DE371E0CE010E944F
:1003C000BF01800F911FDF91CF911F910F91089571
:1003D00060EB74E080E090E00E9401080E94B805A4
:1003E00061E088E00E94F5066FE082E00E94C005AF
:1003F00069E572E080ED93E00E94D4016EE082E056
:100400000E94C00569E572E080ED93E00E94D4018E
:1004100060E082E00E94C00568EC70E080E090E05F
:100420000E94010860E471E080ED93E00E94D40135
:1004300061E084E00E94C00581E591E00E94D20560
:1004400068EC70E080E090E00E9401080E94B8052E
:1004500060E082E00E94C00563E571E080ED93E01A
:100460000E94D40160E088E00E94F50668EE73E027
:1004700080E090E00E94010861E088E00E94F506BB
:1004800060E082E00E94C00563E571E080ED93E0EA
:100490000E94D40161E084E00E94C00582E691E000
:1004A0000E94D20564E670E080E090E00E940108BE
:1004B0000E94B80560E082E00E94C00563E571E03B
:1004C00080ED93E00E94D40160E088E00E94F50690
:1004D00068EE73E080E090E00E94010861E088E04F
:1004E0000E94F50660E082E00E94C00563E571E0CD
:1004F00080ED93E00E94D40161E084E00E94C00599
:1005000084E691E00E94D20564E670E080E090E02D
:100510000E9401080E94B80560E082E00E94C005C8
:1005200063E571E080ED93E00E94D40160E088E033
:100530000E94F50668EE73E080E090E00E940108FA
:1005400061E088E00E94F50660E082E00E94C0055C
:1005500063E571E080ED93E00E94D40161E084E006
:100560000E94C00586E691E00E94D20564E670E034
:1005700080E090E00E9401080E94B80560E082E0FF
:100580000E94C00563E571E080ED93E00E94D40114
:1005900060E088E00E94F50668EE73E080E090E09D
:1005A0000E94010861E088E00E94F50661E084E0B5
:1005B0000E94C00588E691E00E94D20564E670E0E2
:1005C00080E090E00E9401080E94B80560E082E0AF
:1005D0000E94C0056AE671E080ED93E00E94D401BC
:1005E00060E088E00E94F50668EE73E080E090E04D
:1005F0000E94010861E088E00E94F50668E270E070
:1006000080E090E00E94010860E088E00E94F5062A
:1006100068E270E080E090E00E94010861E088E01C
:100620000E94F50668E270E080E090E00E94010818
:1006300060E088E00E94F50668E270E080E090E00B
:100640000E94010861E088E00E94F50668E270E01F
:1006500080E090E00E94010860E088E00E94F506DA
:1006600068E270E080E090E00E94010861E088E0CC
:100670000E94F50668E270E080E090E00E940108C8
:1006800060E088E00E94F5060E94B80560E082E024
:100690000E94C0058AE791E00E94D20564EF71E0F4
:1006A00080E090E00E94010860E08CE00E94C005BC
:1006B0008EE292E00E94D20564EF71E080E090E06B
:1006C0000E94010860E08DE00E94C0058EE292E089
:1006D0000E94D20564EF71E080E090E00E94010882
:1006E00060E08EE00E94C0058EE292E00E94D2059A
:1006F00060E971E080E090E00E9401080E94B80586
:1007000060E084E00E94C00585E891E00E94D20587
:1007100068EB71E080E090E00C94010860E080E01C
:100720000E94C0056DE871E080ED93E00E94D40165
:1007300061E081E00E94C0056EE971E080ED93E028
:100740000C94D4011F920F920FB60F9211242F9385
:100750003F934F935F936F937F938F939F93AF9349
:10076000BF93EF93FF938FE992E00E94FD00FF910A
:10077000EF91BF91AF919F918F917F916F915F9119
:100780004F913F912F910F900FBE0F901F90189592
:100790001F920F920FB60F9211242F938F939F9356
:1007A000EF93FF93E091AF02F091B0028081E0916E
:1007B000B502F091B60282FD12C090818091B8021C
:1007C0008F5F8F732091B902821751F0E091B802C8
:1007D000F0E0E156FD4F958F8093B80201C0808113
:1007E000FF91EF919F918F912F910F900FBE0F90DE
:1007F0001F9018951F920F920FB60F9211242F93EE
:100800003F934F935F936F937F938F939F93AF9398
:10081000BF93EF93FF938091960287FF05C01092DC
:100820008500109284001BC020919602022E000CBD
:10083000330B8091600390E02817390784F480918E
:100840009602082E000C990BFC01EE0FFF1F8E0F75
:100850009F1FFC01E45CFC4F808186FD15C08091E8
:1008600096028F5F8093960220919602022E000CD2
:10087000330B8091600390E028173907C4F480910E
:1008800096028C3064F113C080919602082E000C01
:10089000990BFC01EE0FFF1F8E0F9F1FFC01E45C04
:1008A000FC4F808160E08F730E94F506D8CF809165
:1008B000840090918500049680349C4918F480E46B
:1008C0009CE905C0809184009091850004969093E6
:1008D0008900809388008FEF809396023BC020911F
:1008E00084003091850080919602082E000C990BAF
:1008F000FC01EE0FFF1F8E0F9F1FFC01E45CFC4FFD
:1009000081819281820F931F909389008093880048
:1009100080919602082E000C990BFC01EE0FFF1F30
:100920008E0F9F1FFC01E45CFC4F808186FF12C08C
:1009300080919602082E000C990BFC01EE0FFF1F10
:100940008E0F9F1FFC01E45CFC4F808161E08F7380
:100950000E94F506FF91EF91BF91AF919F918F910A
:100960007F916F915F914F913F912F910F900FBEAB
:100970000F901F901895CF92DF92EF92FF920F93F6
:100980001F93CF93DF936C017C0187E0E80EF11C8D
:10099000C0E0D0E0062F10E0B8010C2E02C0759523
:1009A00067950A94E2F76170F70181917F010E94D7
:1009B000F5062196C430D10579F7C601DF91CF91B4
:1009C0001F910F91FF90EF90DF90CF900C94A001BA
:1009D000CF92DF92EF92FF920F931F93CF93DF930B
:1009E000EC01F62E642F8C810E94F5068D818F3FDD
:1009F00019F060E00E94F5068F850F2D10E084FF4E
:100A000025C06E0187E0C80ED11CE12CF12CB80185
:100A10000E2C02C0759567950A94E2F76170F60195
:100A200081916F010E94F506FFEFEF1AFF0A88E03F
:100A3000E816F10461F7CE01DF91CF911F910F917C
:100A4000FF90EF90DF90CF900C94A001B80184E06C
:100A5000759567958A95E1F7CE010E94BB046F2DCD
:100A6000CE01DF91CF911F910F91FF90EF90DF901A
:100A7000CF900C94BB0441E00E94E80481E090E038
:100A8000089596E0899FD0011124AF59BC4F9096EC
:100A90007C936E935F9791E091969C939197909140
:100AA000CD03E091CE03F091CF03992339F0309735
:100AB00051F0811108C080917D0304C0309719F076
:100AC0005C968C9109940895833081F028F48130EC
:100AD00099F08230A1F008958730A9F08830B9F0FC
:100AE0008430D1F4809180008F7D03C0809180009C
:100AF0008F7780938000089584B58F7702C084B586
:100B00008F7D84BD08958091B0008F7703C0809160
:100B1000B0008F7D8093B00008953FB7F894809126
:100B2000EC039091ED03A091EE03B091EF0326B595
:100B3000A89B05C02F3F19F00196A11DB11D3FBF15
:100B4000BA2FA92F982F8827820F911DA11DB11DA3
:100B5000BC01CD0142E0660F771F881F991F4A959F
:100B6000D1F7089540E0682F80ED93E00C94E804FD
:100B700081E00E94B2058BE39FE10197F1F70895B0
:100B8000643008F063E09091E303691710F06FEFB1
:100B9000690FE62FF0E0E053FC4F9489890F8068DD
:100BA0000C94B205BC0180ED93E00C94BF01CF9290
:100BB000DF92EF92FF92DC01A03282E0B8070CF0E6
:100BC0003EC0B7FD06C0A53BB1052CF0A4EBB0E0DC
:100BD00002C0A0E0B0E08091E90328E830E06901BC
:100BE000C81AD10887FDD394CC0CDD1CCC0CDD1CBD
:100BF0000D2C000CEE08FF088091EA0328E532E096
:100C0000281B310987FD3395220F331F220F331F15
:100C1000A901330F660B770B9A01AB012C193D0923
:100C20004E095F090E94020E24EB30E040E050E0E4
:100C30000E94D80DC20ED31EE41EF51ED60190915F
:100C4000E8039C3098F58091E90348E850E0481BA0
:100C5000510987FD5395440F551F440F551FA41785
:100C6000B5078CF08091EA0328E532E0281B3109B2
:100C700087FD3395220F331F220F331FAD012A1733
:100C80003B070CF4A90142505109440F551F2FB7DF
:100C9000F894892F90E0FC01EE0FFF1F8E0F9F1F2D
:100CA000FC01E45CFC4F528341832FBFFF90EF9027
:100CB000DF90CF900895CF92DF92EF92FF920F9343
:100CC0001F9396E0899FF0011124EF59FC4F11A268
:100CD000278D30A12130310539F158F0223031050E
:100CE00009F447C02330310509F04FC060E070E0DF
:100CF00044C0662309F449C061E070E00E944105E8
:100D00002FB7F89480919B0290919C02A0919D0234
:100D1000B0919E022FBF8093B9039093BA03A09322
:100D2000BB03B093BC0331C09FB7F894C0909B0243
:100D3000D0909C02E0909D02F0909E029FBF009197
:100D4000B9031091BA032091BB033091BC03C01AC0
:100D5000D10AE20AF30A0091CB031091CC0320E000
:100D600030E00C151D052E053F0518F462E070E01B
:100D700004C061110AC063E070E01F910F91FF9001
:100D8000EF90DF90CF900C9441051F910F91FF9051
:100D9000EF90DF90CF900895CF93DF93282F30E02E
:100DA000F901E255FF4F8491F901E656FF4FD491C6
:100DB000F901EA57FF4FC491CC2391F081110E94B1
:100DC0006405EC2FF0E0EE0FFF1FE458FF4FA591F4
:100DD000B491EC91ED2381E090E021F480E002C039
:100DE00080E090E0DF91CF9108951F93CF93DF9340
:100DF000282F30E0F901E255FF4F8491F901E656C2
:100E0000FF4FD491F901EA57FF4FC491CC23C1F0B1
:100E1000162F81110E946405EC2FF0E0EE0FFF1FEA
:100E2000EE58FF4FA591B4919FB7F894111104C0EB
:100E30008C91D095D82302C0EC91DE2BDC939FBF20
:100E4000DF91CF911F910895CF93DF9390E0FC0144
:100E5000E656FF4F2491FC01EA57FF4F8491882307
:100E600061F190E0880F991FFC01E859FF4FC5918F
:100E7000D491FC01EE58FF4FA591B491611109C0C6
:100E80009FB7F8948881209582238883EC912E2344
:100E90000BC0623061F49FB7F8948881322F30958F
:100EA00083238883EC912E2B2C939FBF06C08FB792
:100EB000F894E8812E2B28838FBFDF91CF9108957E
:100EC000CF93DF93823028F09091DF039860909366
:100ED000DF038093E3031092E40380E48093E5034F
:100EE00080E18093E60380E58093E70361E08091F1
:100EF000D4030E9424078091D5038F3F19F061E04D
:100F00000E94240761E08091D6030E942407C0ED6F
:100F1000D3E09E01205D33408091DF0384FD03C058
:100F200084E090E002C088E090E02196281739071D
:100F30002CF461E08E810E942407EBCF8BE39DE0CF
:100F40000197F1F760E08091D4030E94F50660E01C
:100F50008091D6030E94F5068091D5038F3F19F04A
:100F600060E00E94F5068091DF0384FD20C063E00D
:100F700080ED93E00E94BB04CBE4D6E4CE01019760
:100F8000F1F763E080ED93E00E94BB042197F1F755
:100F900063E080ED93E00E94BB0483E592E001975B
:100FA000F1F762E080ED93E00E94BB0415C080621F
:100FB0000E94B2058BE496E40197F1F78091DF037C
:100FC00080620E94B20583E592E00197F1F780917B
:100FD000DF0380620E94B2058091DF0380620E947D
:100FE000B20584E08093E0038CE00E94B2050E9489
:100FF000B80582E08093E10386E0DF91CF910C9405
:10100000B2058F929F92AF92BF92CF92DF92EF92F2
:10101000FF926B017C010E948D054B015C01C114A4
:10102000D104E104F104F1F00E948D05DC01CB0153
:1010300088199909AA09BB09883E9340A105B10501
:1010400070F321E0C21AD108E108F10888EE880E99
:1010500083E0981EA11CB11CC114D104E104F10469
:1010600019F7DDCFFF90EF90DF90CF90BF90AF905A
:101070009F908F9008951F920F920FB60F92112498
:101080002F933F938F939F93AF93BF9380919B0236
:1010900090919C02A0919D02B0919E023091EB0331
:1010A00023E0230F2D3720F40196A11DB11D05C0AB
:1010B00026E8230F0296A11DB11D2093EB03809318
:1010C0009B0290939C02A0939D02B0939E028091FC
:1010D000EC039091ED03A091EE03B091EF03019624
:1010E000A11DB11D8093EC039093ED03A093EE033B
:1010F000B093EF03BF91AF919F918F913F912F914B
:101100000F900FBE0F901F901895789484B5826051
:1011100084BD84B5816084BD85B5826085BD85B59B
:10112000816085BD80916E00816080936E00109219
:101130008100809181008260809381008091810094
:101140008160809381008091800081608093800025
:101150008091B10084608093B1008091B000816083
:101160008093B00080917A00846080937A008091AF
:101170007A00826080937A0080917A008160809307
:101180007A0080917A00806880937A001092C10082
:101190000E948E03E091AF02F091B00282E0808362
:1011A000E091AB02F091AC021082E091AD02F091BF
:1011B000AE028FEC80831092B702E091B302F091FF
:1011C000B40286E08083E091B102F091B2028081A6
:1011D00080618083E091B102F091B20280818860E9
:1011E0008083E091B102F091B202808180688083B7
:1011F000E091B102F091B20280818F7D808361E045
:101200008AE00E94240761E08BE00E94240761E0ED
:1012100088E00E9424078091E8038C3008F051C0D8
:1012200061E089E00E9424078091E803E82FF0E064
:101230009F01220F331FE20FF31FE45CFC4F9081EC
:10124000907C996090831092E9031092EA036CE01D
:101250000E943B0E5CE0859FB001112440E050E00D
:101260009B01240F351FF901EE0FFF1F2E0F3F1FAB
:10127000F901E45CFC4F908196FD16C04F5F5F4F13
:101280004C30510569F781110FC01092800082E047
:10129000809381001092850010928400B19A809111
:1012A0006F00826080936F00E091E803F0E0CF016F
:1012B000880F991FE80FF91FE45CFC4F8081806460
:1012C000808382E00E946007812C912C54018394DA
:1012D00046E0442E512C54EB652E712C80919902DE
:1012E00090919A02892B11F40E948E0381E08093E1
:1012F000CD038FB7F89440919B0250919C0260916E
:101300009D0270919E028FBF8091BD039091BE039C
:10131000A091BF03B091C003481B590B6A0B7B0B14
:101320008091C9039091CA03A0E0B0E084179507AB
:10133000A607B70708F0FFC0C0E08091C703C81731
:1013400010F0312C40C0E091C303F091C403EC0FC6
:10135000F11D62E080810E942407CF5FEECFC22D95
:10136000D0E0E091C303F091C403EC0FFD1F808136
:101370000E94CC062496CC0FDD1FCF59DC4F892B61
:1013800009F04BC0888199818C299D299983888394
:1013900023948091C703281610F3E091C503F091C0
:1013A000C603E00FF11F61E080810E94F506809185
:1013B000C5039091C603FC01E00FF11F60E080813E
:1013C0000E94240733948091C803381658F5032DE2
:1013D00010E0E091C503F091C603E00FF11F61E05A
:1013E00080810E942407E091C503F091C603E00FBD
:1013F000F11F60E080810E94F506D501C401032C35
:1014000004C0880F991FAA1FBB1F0A94D2F76C0152
:101410007C01E094F094212CBCCF888199818E21AD
:101420009F21B4CFC1E6D3E0FE01878D90A1892B27
:1014300031F4148E8FEF9FEF968F858F11A2369621
:101440008DE993E08E179F0781F7F12C8091C703F8
:10145000F81658F5E12C0F2D10E0000F111F075959
:101460001C4F2091C803E216F0F4F801408151812D
:101470000E2C02C0569547950A94E2F7642F6170CE
:10148000F29E900111242E0D311DE1E6F3E080E083
:10149000A58DB68D2A173B0709F4ABC28F5F369630
:1014A0008A30B1F789C2F394D1CF80E099A191112C
:1014B00081E0269693E0CD39D907C1F79FB7F8941C
:1014C00040919B0250919C0260919D0270919E02FE
:1014D0009FBF4093BD035093BE036093BF037093BF
:1014E000C003882341F180918203882321F18091F8
:1014F0008003909181030197F1F410917D031123F2
:1015000009F457C20E94B80560E080E00E94C0055F
:101510008EEA91E00E94D20561E087E00E94C0055A
:1015200089E592E00E94D20561E087E00E94C00553
:10153000C0E0D0E003C01092CD033BC2809199027D
:1015400090919A028C179D07A4F08CE991E00E947B
:10155000D20561E088E00E94F50662E370E080E079
:1015600090E00E94010860E088E00E94F506219664
:10157000E5CFFC01E854FE4F20812113F5C0019610
:1015800090939A0280939902049709F050C164E8FD
:1015900073E080E090E00E94010860E080E00E943B
:1015A000C00569E572E080ED93E00E94D40160E03F
:1015B00081E00E94C0058DEB91E00E94D20561E0C0
:1015C00084E00E94C0056CEC71E080ED93E00E9425
:1015D000D40161E08FE00E94C00569E572E080ED12
:1015E00093E00E94D40161E080E10E94C00569E5BA
:1015F00072E080ED93E00E94D40161E08EE00E94F1
:10160000C00569E572E080ED93E00E94D40161E0DD
:101610008DE00E94C00569E572E080ED93E00E94D4
:10162000D40161E088E00E94F50660E570E080E0AA
:1016300090E00E94010860E088E00E94F50660E505
:1016400070E080E090E00E94010861E088E00E9484
:10165000F50660E570E080E090E00E94010860E03F
:1016600088E00E94F50668EC70E080E090E00E945F
:10167000010861E088E00E94F50660E570E080E026
:1016800090E00E94010860E088E00E94F50660E5B5
:1016900070E080E090E00E94010861E088E00E9434
:1016A000F50660E570E080E090E00E94010860E0EF
:1016B00088E00E94F50660E570E080E090E00E941E
:1016C00001087092980260929702C0919702D0919F
:1016D0009802D7FD0FC0CE010E94D70565E070E0EB
:1016E00080E090E00E9401082597D0939802C09373
:1016F0009702EBCF60ED77E080E090E00E94010878
:1017000068EE73E080E090E00E9401080E94E8012A
:1017100068EE73E080E090E00E9401081092980269
:10172000109297028091970290919802853B9105C3
:101730000CF079C00E94D7056FE070E080E090E087
:101740000E94010810929A02109299020E94B80514
:101750000E948E0380919702909198020596909333
:10176000980280939702DECF809100019091010151
:101770000196909301018093000164EF71E080E095
:1017800090E00E9401080E94B80560E081E00E949C
:10179000C00586ED91E00E94D20560E086E00E94DF
:1017A000C0058BED91E00E94D20561E08FE00E94C0
:1017B000C00569E572E080ED93E00E94D40161E02C
:1017C00084E00E94C00565EE71E080ED93E00E9428
:1017D000D40161E08DE00E94C00569E572E080ED12
:1017E00093E00E94D40161EF71E08FE992E00E94E2
:1017F000D40161E08AE00E94F50661E088E00E9481
:10180000F50668EB7BE080E090E00E9401080E9412
:10181000B80560E08AE00E94F50660E088E00E947A
:10182000F5060E948E0310929A02109299028091FE
:10183000000190910101059709F044C05092010107
:101840004092000168EE73E080E090E00E940108A1
:101850000E94B80560E082E00E94C00585E192E048
:101860000E94D20561E085E00E94C0058FE192E010
:101870000E94D20561E088E00E94F50668E97AE3FB
:1018800080E090E00E94010860E088E00E94F50698
:101890000E94B80560E082E00E94C0058AE292E002
:1018A0000E94D20561E081E00E94C00580E392E0E1
:1018B0000E94D2056CEA7DE080E090E00E94010881
:1018C0000E94B8058091000190910101089709F0EC
:1018D00070C068EE73E080E090E00E94010860E074
:1018E00081E00E94C00589E592E00E94D20560E097
:1018F00082E00E94C00580E492E00E94D20561E08F
:1019000080E00E94C0058EE492E00E94D2056CED5A
:1019100075E080E090E00E9401080E94B80560E058
:1019200081E00E94C0058BE592E00E94D20561E053
:1019300084E00E94C00585E692E00E94D20561E045
:1019400088E00E94F50668ED76ED80E090E00E9468
:1019500001080E94E8010E94B80560E088E00E944A
:10196000F50660E082E00E94C0058FE692E00E94EA
:10197000D20561E081E00E94C0058AE792E00E9402
:10198000D20564EC79E080E090E00E9401080E94BA
:10199000B80560E082E00E94C0058AE892E00E94FB
:1019A000D20564EA76E080E090E00E9401080E949F
:1019B000B8050E948E0192CC40FF1DC0E1E6F3E025
:1019C00080E090E0448D411118C0E091C103F09196
:1019D000C203E20FF31F408156E0589FF001599F68
:1019E000F00D1124EF59FC4F448F368F258F10A234
:1019F000178E0E945B06E39434CD019636968A30AA
:101A0000910501F7F8CF1092A2021092A10288EE80
:101A100093E0A0E0B0E08093A3029093A402A0938F
:101A2000A502B093A60289E191E09093A002809371
:101A30009F0285EC90E09093AC028093AB0284EC23
:101A400090E09093AE028093AD0280EC90E0909392
:101A5000B0028093AF0281EC90E09093B202809349
:101A6000B10282EC90E09093B4028093B30286ECD2
:101A700090E09093B6028093B5021092B802109253
:101A8000B9021092BA021092BB02809160038C30AE
:101A9000A0F491E0980F909360038093E80390E0A6
:101AA000FC01EE0FFF1F8E0F9F1FFC01E45CFC4F3B
:101AB00088EB9BE09283818303C08FEF8093E803E0
:101AC0001092D3031092D20385E391E09093D10357
:101AD0008093D0038EE08093D4038FEF8093D5035F
:101AE0008FE08093D60380E18093D70381E18093D8
:101AF000D80382E18093D90383E18093DA031092C3
:101B0000DB031092DC031092DD031092DE031092CF
:101B1000DF0381E00E946007109263031092670365
:101B200010926603109268038BE291E09093620337
:101B300080936103E1E6F3E0148E10A2178E11A2E8
:101B4000369683E0ED39F807B9F785E091E0909398
:101B5000C4038093C30382E091E09093C603809313
:101B6000C50384E08093C70383E08093C80389E0C2
:101B700091E09093C2038093C1038AE090E0909338
:101B8000CA038093C90384EF91E09093CC038093C0
:101B9000CB031092CF031092CE031092BD0310928C
:101BA000BE031092BF031092C0031092CD0308959C
:101BB000052E97FB1EF400940E94EF0D57FD07D0F1
:101BC0000E940A0E07FC03D04EF40C94EF0D5095C2
:101BD0004095309521953F4F4F4F5F4F0895909519
:101BE0008095709561957F4F8F4F9F4F08950E940C
:101BF0002C0EA59F900DB49F900DA49F800D911D5C
:101C000011240895B7FF0C94F70D0E94F70D821B65
:101C1000930B0895A1E21A2EAA1BBB1BFD010DC058
:101C2000AA1FBB1FEE1FFF1FA217B307E407F5078C
:101C300020F0A21BB30BE40BF50B661F771F881F68
:101C4000991F1A9469F760957095809590959B01FE
:101C5000AC01BD01CF010895A29FB001B39FC001A7
:101C6000A39F700D811D1124911DB29F700D811DC8
:101C70001124911D0895991B79E004C0991F9617AE
:101C800008F0961B881F7A95C9F780950895EE0F86
:101C9000FF1F0590F491E02D099481E090E0F89405
:081CA0000C94520EF894FFCFE2
:101CA8000C00050607010203043132333435363798
:101CB80038392A3023000000001F018C00B6006C60
:101CC80001E700C500D90000000000B6019C01BA78
:101CD80001000000003B058C00990198010D0A00E5
:101CE80047455420494E2057495448494E3A3A3AB4
:101CF80000350047455420494E2057495448494E1D
:101D08003A00340033003200310047455420494E30
:101D18002057495448494E3A3A0052452D4C4F43B2
:101D28004B494E47004C4F434B454421002A454EF2
:101D38005445522054484520434F44452A00544FA7
:101D4800205F2F5F20284F50454E29212100504108
:101D58005353574F52443A00343536370041636382
:101D6800657373204772616E7465640057454C4310
:101D78004F4D45212100434F444500494E434F52A2
:101D88005245435400474554204157415921212188
:101D980000434F444520494E434F52524543542037
:101DA800594F552041524520554E415554484F52A0
:101DB800495A4544005741495420464F5220003162
:101DC80035205345434F4E4453004C4F4C2E2E0064
:101DD80020484F572057415320544841543F3F0013
:101DE800454152204452554D532041524500205000
:101DF800524543494F55532121200020574149540A
:101E080020464F52002031204D494E555445005729
:101E1800414E54204D4520544F00524544494355A6
:101E28004C45204D4F52453F3F00486120486120B6
:061E380048612048610032
:00000001FF
